{
	"data": {
		"bytecode": {
			"linkReferences": {},
			"object": "6080604052348015600e575f5ffd5b506104748061001c5f395ff3fe608060405234801561000f575f5ffd5b506004361061007b575f3560e01c806361bc221a1161005957806361bc221a146100af578063842a193b146100cd57806395b9d3d9146100e9578063e8927fbc146100f35761007b565b80631ab06ee51461007f57806335a2be5b1461009b57806342b148aa146100a5575b5f5ffd5b61009960048036038101906100949190610248565b6100fd565b005b6100a3610101565b005b6100ad61010f565b005b6100b7610170565b6040516100c49190610295565b60405180910390f35b6100e760048036038101906100e29190610319565b610175565b005b6100f16101f2565b005b6100fb6101fc565b005b5050565b61010d600360026100fd565b565b3073ffffffffffffffffffffffffffffffffffffffff1663e8927fbc6117706040518263ffffffff1660e01b81526004015f604051808303815f88803b158015610157575f5ffd5b5087f1158015610169573d5f5f3e3d5ffd5b5050505050565b5f5481565b8073ffffffffffffffffffffffffffffffffffffffff1663e420264a600a6040518263ffffffff1660e01b81526004016101af9190610386565b602060405180830381865afa1580156101ca573d5f5f3e3d5ffd5b505050506040513d601f19601f820116820180604052508101906101ee91906103b3565b5050565b6101fa6101fc565b565b60015f5461020a919061040b565b5f81905550565b5f5ffd5b5f819050919050565b61022781610215565b8114610231575f5ffd5b50565b5f813590506102428161021e565b92915050565b5f5f6040838503121561025e5761025d610211565b5b5f61026b85828601610234565b925050602061027c85828601610234565b9150509250929050565b61028f81610215565b82525050565b5f6020820190506102a85f830184610286565b92915050565b5f73ffffffffffffffffffffffffffffffffffffffff82169050919050565b5f6102d7826102ae565b9050919050565b5f6102e8826102cd565b9050919050565b6102f8816102de565b8114610302575f5ffd5b50565b5f81359050610313816102ef565b92915050565b5f6020828403121561032e5761032d610211565b5b5f61033b84828501610305565b91505092915050565b5f819050919050565b5f819050919050565b5f61037061036b61036684610344565b61034d565b610215565b9050919050565b61038081610356565b82525050565b5f6020820190506103995f830184610377565b92915050565b5f815190506103ad8161021e565b92915050565b5f602082840312156103c8576103c7610211565b5b5f6103d58482850161039f565b91505092915050565b7f4e487b71000000000000000000000000000000000000000000000000000000005f52601160045260245ffd5b5f61041582610215565b915061042083610215565b9250828201905080821115610438576104376103de565b5b9291505056fea26469706673582212200589e20feca7dcfb8fc212fea49a4953998cefd597c7c45aec394deffaf15c9c64736f6c634300081e0033",
			"opcodes": "PUSH1 0x80 PUSH1 0x40 MSTORE CALLVALUE DUP1 ISZERO PUSH1 0xE JUMPI PUSH0 PUSH0 REVERT JUMPDEST POP PUSH2 0x474 DUP1 PUSH2 0x1C PUSH0 CODECOPY PUSH0 RETURN INVALID PUSH1 0x80 PUSH1 0x40 MSTORE CALLVALUE DUP1 ISZERO PUSH2 0xF JUMPI PUSH0 PUSH0 REVERT JUMPDEST POP PUSH1 0x4 CALLDATASIZE LT PUSH2 0x7B JUMPI PUSH0 CALLDATALOAD PUSH1 0xE0 SHR DUP1 PUSH4 0x61BC221A GT PUSH2 0x59 JUMPI DUP1 PUSH4 0x61BC221A EQ PUSH2 0xAF JUMPI DUP1 PUSH4 0x842A193B EQ PUSH2 0xCD JUMPI DUP1 PUSH4 0x95B9D3D9 EQ PUSH2 0xE9 JUMPI DUP1 PUSH4 0xE8927FBC EQ PUSH2 0xF3 JUMPI PUSH2 0x7B JUMP JUMPDEST DUP1 PUSH4 0x1AB06EE5 EQ PUSH2 0x7F JUMPI DUP1 PUSH4 0x35A2BE5B EQ PUSH2 0x9B JUMPI DUP1 PUSH4 0x42B148AA EQ PUSH2 0xA5 JUMPI JUMPDEST PUSH0 PUSH0 REVERT JUMPDEST PUSH2 0x99 PUSH1 0x4 DUP1 CALLDATASIZE SUB DUP2 ADD SWAP1 PUSH2 0x94 SWAP2 SWAP1 PUSH2 0x248 JUMP JUMPDEST PUSH2 0xFD JUMP JUMPDEST STOP JUMPDEST PUSH2 0xA3 PUSH2 0x101 JUMP JUMPDEST STOP JUMPDEST PUSH2 0xAD PUSH2 0x10F JUMP JUMPDEST STOP JUMPDEST PUSH2 0xB7 PUSH2 0x170 JUMP JUMPDEST PUSH1 0x40 MLOAD PUSH2 0xC4 SWAP2 SWAP1 PUSH2 0x295 JUMP JUMPDEST PUSH1 0x40 MLOAD DUP1 SWAP2 SUB SWAP1 RETURN JUMPDEST PUSH2 0xE7 PUSH1 0x4 DUP1 CALLDATASIZE SUB DUP2 ADD SWAP1 PUSH2 0xE2 SWAP2 SWAP1 PUSH2 0x319 JUMP JUMPDEST PUSH2 0x175 JUMP JUMPDEST STOP JUMPDEST PUSH2 0xF1 PUSH2 0x1F2 JUMP JUMPDEST STOP JUMPDEST PUSH2 0xFB PUSH2 0x1FC JUMP JUMPDEST STOP JUMPDEST POP POP JUMP JUMPDEST PUSH2 0x10D PUSH1 0x3 PUSH1 0x2 PUSH2 0xFD JUMP JUMPDEST JUMP JUMPDEST ADDRESS PUSH20 0xFFFFFFFFFFFFFFFFFFFFFFFFFFFFFFFFFFFFFFFF AND PUSH4 0xE8927FBC PUSH2 0x1770 PUSH1 0x40 MLOAD DUP3 PUSH4 0xFFFFFFFF AND PUSH1 0xE0 SHL DUP2 MSTORE PUSH1 0x4 ADD PUSH0 PUSH1 0x40 MLOAD DUP1 DUP4 SUB DUP2 PUSH0 DUP9 DUP1 EXTCODESIZE ISZERO DUP1 ISZERO PUSH2 0x157 JUMPI PUSH0 PUSH0 REVERT JUMPDEST POP DUP8 CALL ISZERO DUP1 ISZERO PUSH2 0x169 JUMPI RETURNDATASIZE PUSH0 PUSH0 RETURNDATACOPY RETURNDATASIZE PUSH0 REVERT JUMPDEST POP POP POP POP POP JUMP JUMPDEST PUSH0 SLOAD DUP2 JUMP JUMPDEST DUP1 PUSH20 0xFFFFFFFFFFFFFFFFFFFFFFFFFFFFFFFFFFFFFFFF AND PUSH4 0xE420264A PUSH1 0xA PUSH1 0x40 MLOAD DUP3 PUSH4 0xFFFFFFFF AND PUSH1 0xE0 SHL DUP2 MSTORE PUSH1 0x4 ADD PUSH2 0x1AF SWAP2 SWAP1 PUSH2 0x386 JUMP JUMPDEST PUSH1 0x20 PUSH1 0x40 MLOAD DUP1 DUP4 SUB DUP2 DUP7 GAS STATICCALL ISZERO DUP1 ISZERO PUSH2 0x1CA JUMPI RETURNDATASIZE PUSH0 PUSH0 RETURNDATACOPY RETURNDATASIZE PUSH0 REVERT JUMPDEST POP POP POP POP PUSH1 0x40 MLOAD RETURNDATASIZE PUSH1 0x1F NOT PUSH1 0x1F DUP3 ADD AND DUP3 ADD DUP1 PUSH1 0x40 MSTORE POP DUP2 ADD SWAP1 PUSH2 0x1EE SWAP2 SWAP1 PUSH2 0x3B3 JUMP JUMPDEST POP POP JUMP JUMPDEST PUSH2 0x1FA PUSH2 0x1FC JUMP JUMPDEST JUMP JUMPDEST PUSH1 0x1 PUSH0 SLOAD PUSH2 0x20A SWAP2 SWAP1 PUSH2 0x40B JUMP JUMPDEST PUSH0 DUP2 SWAP1 SSTORE POP JUMP JUMPDEST PUSH0 PUSH0 REVERT JUMPDEST PUSH0 DUP2 SWAP1 POP SWAP2 SWAP1 POP JUMP JUMPDEST PUSH2 0x227 DUP2 PUSH2 0x215 JUMP JUMPDEST DUP2 EQ PUSH2 0x231 JUMPI PUSH0 PUSH0 REVERT JUMPDEST POP JUMP JUMPDEST PUSH0 DUP2 CALLDATALOAD SWAP1 POP PUSH2 0x242 DUP2 PUSH2 0x21E JUMP JUMPDEST SWAP3 SWAP2 POP POP JUMP JUMPDEST PUSH0 PUSH0 PUSH1 0x40 DUP4 DUP6 SUB SLT ISZERO PUSH2 0x25E JUMPI PUSH2 0x25D PUSH2 0x211 JUMP JUMPDEST JUMPDEST PUSH0 PUSH2 0x26B DUP6 DUP3 DUP7 ADD PUSH2 0x234 JUMP JUMPDEST SWAP3 POP POP PUSH1 0x20 PUSH2 0x27C DUP6 DUP3 DUP7 ADD PUSH2 0x234 JUMP JUMPDEST SWAP2 POP POP SWAP3 POP SWAP3 SWAP1 POP JUMP JUMPDEST PUSH2 0x28F DUP2 PUSH2 0x215 JUMP JUMPDEST DUP3 MSTORE POP POP JUMP JUMPDEST PUSH0 PUSH1 0x20 DUP3 ADD SWAP1 POP PUSH2 0x2A8 PUSH0 DUP4 ADD DUP5 PUSH2 0x286 JUMP JUMPDEST SWAP3 SWAP2 POP POP JUMP JUMPDEST PUSH0 PUSH20 0xFFFFFFFFFFFFFFFFFFFFFFFFFFFFFFFFFFFFFFFF DUP3 AND SWAP1 POP SWAP2 SWAP1 POP JUMP JUMPDEST PUSH0 PUSH2 0x2D7 DUP3 PUSH2 0x2AE JUMP JUMPDEST SWAP1 POP SWAP2 SWAP1 POP JUMP JUMPDEST PUSH0 PUSH2 0x2E8 DUP3 PUSH2 0x2CD JUMP JUMPDEST SWAP1 POP SWAP2 SWAP1 POP JUMP JUMPDEST PUSH2 0x2F8 DUP2 PUSH2 0x2DE JUMP JUMPDEST DUP2 EQ PUSH2 0x302 JUMPI PUSH0 PUSH0 REVERT JUMPDEST POP JUMP JUMPDEST PUSH0 DUP2 CALLDATALOAD SWAP1 POP PUSH2 0x313 DUP2 PUSH2 0x2EF JUMP JUMPDEST SWAP3 SWAP2 POP POP JUMP JUMPDEST PUSH0 PUSH1 0x20 DUP3 DUP5 SUB SLT ISZERO PUSH2 0x32E JUMPI PUSH2 0x32D PUSH2 0x211 JUMP JUMPDEST JUMPDEST PUSH0 PUSH2 0x33B DUP5 DUP3 DUP6 ADD PUSH2 0x305 JUMP JUMPDEST SWAP2 POP POP SWAP3 SWAP2 POP POP JUMP JUMPDEST PUSH0 DUP2 SWAP1 POP SWAP2 SWAP1 POP JUMP JUMPDEST PUSH0 DUP2 SWAP1 POP SWAP2 SWAP1 POP JUMP JUMPDEST PUSH0 PUSH2 0x370 PUSH2 0x36B PUSH2 0x366 DUP5 PUSH2 0x344 JUMP JUMPDEST PUSH2 0x34D JUMP JUMPDEST PUSH2 0x215 JUMP JUMPDEST SWAP1 POP SWAP2 SWAP1 POP JUMP JUMPDEST PUSH2 0x380 DUP2 PUSH2 0x356 JUMP JUMPDEST DUP3 MSTORE POP POP JUMP JUMPDEST PUSH0 PUSH1 0x20 DUP3 ADD SWAP1 POP PUSH2 0x399 PUSH0 DUP4 ADD DUP5 PUSH2 0x377 JUMP JUMPDEST SWAP3 SWAP2 POP POP JUMP JUMPDEST PUSH0 DUP2 MLOAD SWAP1 POP PUSH2 0x3AD DUP2 PUSH2 0x21E JUMP JUMPDEST SWAP3 SWAP2 POP POP JUMP JUMPDEST PUSH0 PUSH1 0x20 DUP3 DUP5 SUB SLT ISZERO PUSH2 0x3C8 JUMPI PUSH2 0x3C7 PUSH2 0x211 JUMP JUMPDEST JUMPDEST PUSH0 PUSH2 0x3D5 DUP5 DUP3 DUP6 ADD PUSH2 0x39F JUMP JUMPDEST SWAP2 POP POP SWAP3 SWAP2 POP POP JUMP JUMPDEST PUSH32 0x4E487B7100000000000000000000000000000000000000000000000000000000 PUSH0 MSTORE PUSH1 0x11 PUSH1 0x4 MSTORE PUSH1 0x24 PUSH0 REVERT JUMPDEST PUSH0 PUSH2 0x415 DUP3 PUSH2 0x215 JUMP JUMPDEST SWAP2 POP PUSH2 0x420 DUP4 PUSH2 0x215 JUMP JUMPDEST SWAP3 POP DUP3 DUP3 ADD SWAP1 POP DUP1 DUP3 GT ISZERO PUSH2 0x438 JUMPI PUSH2 0x437 PUSH2 0x3DE JUMP JUMPDEST JUMPDEST SWAP3 SWAP2 POP POP JUMP INVALID LOG2 PUSH5 0x6970667358 0x22 SLT KECCAK256 SDIV DUP10 0xE2 0xF EOFCREATE 0xA7 0xDC EXTSTATICCALL DUP16 0xC2 SLT INVALID LOG4 SWAP11 BLOBHASH MSTORE8 SWAP10 DUP13 0xEF 0xD5 SWAP8 0xC7 0xC4 GAS EOFCREATE 0x39 0x4D 0xEF STATICCALL CALL TLOAD SWAP13 PUSH5 0x736F6C6343 STOP ADDMOD 0x1E STOP CALLER "
		},
		"gasEstimates": {
			"creation": {
				"codeDepositCost": "228000",
				"executionCost": "267",
				"totalCost": "228267"
			},
			"external": {
				"callThirdFunc(address)": "infinite",
				"callWithName()": "200",
				"counter()": "2424",
				"externalFunc()": "infinite",
				"increase()": "infinite",
				"internalFunc()": "infinite",
				"set(uint256,uint256)": "infinite"
			}
		},
		"methodIdentifiers": {
			"callThirdFunc(address)": "842a193b",
			"callWithName()": "35a2be5b",
			"counter()": "61bc221a",
			"externalFunc()": "42b148aa",
			"increase()": "e8927fbc",
			"internalFunc()": "95b9d3d9",
			"set(uint256,uint256)": "1ab06ee5"
		}
	},
	"abi": [
		{
			"inputs": [
				{
					"internalType": "contract callee",
					"name": "c",
					"type": "address"
				}
			],
			"name": "callThirdFunc",
			"outputs": [],
			"stateMutability": "pure",
			"type": "function"
		},
		{
			"inputs": [],
			"name": "callWithName",
			"outputs": [],
			"stateMutability": "nonpayable",
			"type": "function"
		},
		{
			"inputs": [],
			"name": "counter",
			"outputs": [
				{
					"internalType": "uint256",
					"name": "",
					"type": "uint256"
				}
			],
			"stateMutability": "view",
			"type": "function"
		},
		{
			"inputs": [],
			"name": "externalFunc",
			"outputs": [],
			"stateMutability": "nonpayable",
			"type": "function"
		},
		{
			"inputs": [],
			"name": "increase",
			"outputs": [],
			"stateMutability": "nonpayable",
			"type": "function"
		},
		{
			"inputs": [],
			"name": "internalFunc",
			"outputs": [],
			"stateMutability": "nonpayable",
			"type": "function"
		},
		{
			"inputs": [
				{
					"internalType": "uint256",
					"name": "key",
					"type": "uint256"
				},
				{
					"internalType": "uint256",
					"name": "value",
					"type": "uint256"
				}
			],
			"name": "set",
			"outputs": [],
			"stateMutability": "nonpayable",
			"type": "function"
		}
	]
}